110111002603002603Z                                REBICHINI                     ANDREA              110052004RBCNDR04E10H211C043043110108                                                                              110100102514994 0113 100000000000748316200
110111002603002603Z                                REBICHINI                     ANDREA              110052004RBCNDR04E10H211C043043110108                                                                              110100102514994 9913 100000000000748316200
110111002000002000FRNZMRC56M29G921Z                ANTONELLI                     GIANFELICE          109051945NTNGFL45E09E228H109037110111                                                                              110110191624308 0112 100000000000983962900
110111002000002000FRNZMRC56M29G921Z                ANTONELLI                     GIANFELICE          109051945NTNGFL45E09E228H109037110111                                                                              110110191624308 9912 100000000000983962900
110111002604002604FMNTZEI46M24I324B                BELA'                         GIULIANO            111021936BLEGLN36B11D542E109034110111                                                                              110110129400817 0113 100000000001042687700
110111002604002604FMNTZEI46M24I324B                BELA'                         GIULIANO            111021936BLEGLN36B11D542E109034110111                                                                              110110129400817 9913 100000000001042687700
110111002604002604Z                                SOMNEA                        MARIO ALEXANDRU     122082005SMNMLX05M22Z129G109033110111                                                                      29122012110120141556138 0112 100000000001047042800
110111002604002604Z                                SOMNEA                        MARIO ALEXANDRU     122082005SMNMLX05M22Z129G109033110111                                                                      29122012110120141556138 9912 100000000001047042800
110111002604002604FFZAPLA55E08M018H                D'ANGELO                      NADIA               206071961DNGNDA61L46G516Z109033110111                                                                              110120014348608 0113 100000000001047681000
110111002604002604FFZAPLA55E08M018H                D'ANGELO                      NADIA               206071961DNGNDA61L46G516Z109033110111                                                                              110120014348608 9913 100000000001047681000
110111002604002604FMRTNGL54E25G921C                RICCI                         EGIDIO              101091933RCCGDE33P01F044M109034110111                                                                              110110128216812 0112 100000000001076314600
110111002604002604FMRTNGL54E25G921C                RICCI                         EGIDIO              101091933RCCGDE33P01F044M109034110111                                                                              110110128216812 9912 100000000001076314600
110111002000002000FPRNMSM61S29F482Y                CARLACCHIANI                  ELISA               229011939CRLLSE39A69F428C109013110111                                                                              110130164988764 0112 100000000001080581400
110111002000002000FPRNMSM61S29F482Y                CARLACCHIANI                  ELISA               229011939CRLLSE39A69F428C109013110111                                                                              110130164988764 9912 100000000001080581400
110111002604002604FGCMNRC51A01B474V                SCALELLA                      SOFIA               213112003SCLSFO03S53C770O109037110111                                                                              110110191591087 0112 100000000001082795000
110111002604002604FGCMNRC51A01B474V                SCALELLA                      SOFIA               213112003SCLSFO03S53C770O109037110111                                                                              110110191591087 9912 100000000001082795000
110111002604002604PDFLVTR55M30I315H                FUNARI                        GIACOMO             107072009FNRGCM09L07A462E109017110111                                                                              110100118662570 0112 100000000001096147000
110111002604002604PDFLVTR55M30I315H                FUNARI                        GIACOMO             107072009FNRGCM09L07A462E109017110111                                                                              110100118662570 9912 100000000001096147000
110111002604002604FLMPGNN55A12G920J                MASTROSIMONE                  GIUSEPPE            127111943MSTGPP43S27H501H109006110111                                                                              110120013525762 0112 100000000001098663100
110111002604002604FLMPGNN55A12G920J                MASTROSIMONE                  GIUSEPPE            127111943MSTGPP43S27H501H109006110111                                                                              110120013525762 0212 100000000001098663100
110111002604002604FLMPGNN55A12G920J                MASTROSIMONE                  GIUSEPPE            127111943MSTGPP43S27H501H109006110111                                                                              110120013525762 9912 100000000001098663100
110111002604002604FBLLFRC56T15G921C                SABBATINELLI                  LINO                114091949SBBLNI49P14E372C109034110111                                                                              110110188329904 0111 100000000001100965100
110111002604002604FBLLFRC56T15G921C                SABBATINELLI                  LINO                114091949SBBLNI49P14E372C109034110111                                                                              110110188329904 9911 100000000001100965100
110111002604002604FPZZVNT54D46G921B                BIONDI                        GUERRINA            222031932BNDGRN32C62E690X109034110111                                                                              110100191322977 0112 100000000001101405600
110111002604002604FPZZVNT54D46G921B                BIONDI                        GUERRINA            222031932BNDGRN32C62E690X109034110111                                                                              110100191322977 9912 100000000001101405600
110111002604002604FCTNDGI55A18A462Z                PRINCIPI                      VENANZO             110111940PRNVNZ40S10H211M109034110111                                                                              110110131283314 0113 100000000001103021700
110111002604002604FCTNDGI55A18A462Z                PRINCIPI                      VENANZO             110111940PRNVNZ40S10H211M109034110111                                                                              110110131283314 9913 100000000001103021700
110111111311111311FVLRCSP50B04E208E                VITA                          GIOVANNI            115041939VTIGNN39D15F520P109017110111                                                                              110120012571604 0113 100000000001105521600
110111111311111311FVLRCSP50B04E208E                VITA                          GIOVANNI            115041939VTIGNN39D15F520P109017110111                                                                              110120012571604 9913 100000000001105521600
110111002604002604FBSSSFN51T26H501J                DIOMEDI                       IVANA               223051956DMDVNI56E63G921P109034110111                                                                              110110128342441 0112 100000000001115223600
110111002604002604FBSSSFN51T26H501J                DIOMEDI                       IVANA               223051956DMDVNI56E63G921P109034110111                                                                              110110128342441 9912 100000000001115223600
110111002506002506Z                                BERTIN                        KAREN               204101984BRTKRN84R44D542B109032110111                                                                              110120149721276 0113 100000000001118133600
110111002506002506Z                                BERTIN                        KAREN               204101984BRTKRN84R44D542B109032110111                                                                              110120149721276 9913 100000000001118133600
110111002604002604PDMRVGN63C66H703V                IMPERATO                      ALBERTO             128032003MPRLRT03C28D542E109006110111                                                                              110110058246514 0113 100000000001119227900
110111002604002604PDMRVGN63C66H703V                IMPERATO                      ALBERTO             128032003MPRLRT03C28D542E109006110111                                                                              110110058246514 9913 100000000001119227900
110111002506002506Z                                ALEKSI                        RUDINA              202051992LKSRDN92E42Z100A109031110111                                                                              110120149721298 0113 100000000001123548800
110111002506002506Z                                ALEKSI                        RUDINA              202051992LKSRDN92E42Z100A109031110111                                                                              110120149721298 9913 100000000001123548800
110111002000002000FRCCRRT50T51D542M                MAURIZI                       FRANCESCA           210091978MRZFNC78P50D542O109006110111                                                                              110120073310455 0111 100000000001124525900
110111002000002000FRCCRRT50T51D542M                MAURIZI                       FRANCESCA           210091978MRZFNC78P50D542O109006110111                                                                              110120073310455 9911 100000000001124525900
110111002604002604FSSTLCU54B57G920T                SMERILLI                      FEDERICO            129101992SMRFRC92R29D542W109033110111                                                                              110120013438541 0113 100000000001124932100
110111002604002604FSSTLCU54B57G920T                SMERILLI                      FEDERICO            129101992SMRFRC92R29D542W109033110111                                                                              110120013438541 9913 100000000001124932100
110111002604002604FSBRLGU50A10F599B                TEMPESTILLI                   ROBERTO             108051996TMPRRT96E08D542X109027110111                                                                              110120071043592 0113 100000000001125093000
110111002604002604FSBRLGU50A10F599B                TEMPESTILLI                   ROBERTO             108051996TMPRRT96E08D542X109027110111                                                                              110120071043592 0213 100000000001125093000
110111002604002604FSBRLGU50A10F599B                TEMPESTILLI                   ROBERTO             108051996TMPRRT96E08D542X109027110111                                                                              110120071043592 9913 100000000001125093000
110111002604002604PMRRBRC62M61C770S                FIORALBA                      ANDREA ALFONSO      128062005FRLNRL05H28C770H043013110108                                                                              110120019431180 0113 100000000001128975400
110111002604002604PMRRBRC62M61C770S                FIORALBA                      ANDREA ALFONSO      128062005FRLNRL05H28C770H043013110108                                                                              110120019431180 9913 100000000001128975400
110111002604002604FCRPLTT55S63I324I                COLANTONIO                    SUSANNA             223081971CLNSNN71M63Z112L109034110111                                                                              110110127026145 0112 100000000001129809800
110111002604002604FCRPLTT55S63I324I                COLANTONIO                    SUSANNA             223081971CLNSNN71M63Z112L109034110111                                                                              110110127026145 9912 100000000001129809800
110111002604002604FBCLRRT56M18G920H                FERRERI                       BRUNO VINCENZO      114121942FRRBNV42T14C927B109006110111                                                                              110120140651425 0113 100000000001130687400
110111002604002604FBCLRRT56M18G920H                FERRERI                       BRUNO VINCENZO      114121942FRRBNV42T14C927B109006110111                                                                              110120140651425 9913 100000000001130687400
110111002604002604FMSRPLA61L01E783P                ANTONUCCI                     ANGELO RAFFAELE     124051996NTNNLR96E24L328X109037110111                                                                              110110239554833 0112 100000000001134088900
110111002604002604FMSRPLA61L01E783P                ANTONUCCI                     ANGELO RAFFAELE     124051996NTNNLR96E24L328X109037110111                                                                              110110239554833 9912 100000000001134088900
110111002604002604FBLLFRC56T15G921C                RAMUNNO                       DORA                218121978RMNDRO78T58D643B109034110111                                                                              110110131654788 0113 100000000001134229300
110111002604002604FBLLFRC56T15G921C                RAMUNNO                       DORA                218121978RMNDRO78T58D643B109034110111                                                                              110110131654788 9913 100000000001134229300
110111002604002604FMNTZEI46M24I324B                D'ABRAMO                      GABRIELLA           201071948DBRGRL48L41F614S109034110111                                                                              110110130068696 0113 100000000001136331900
110111002604002604FMNTZEI46M24I324B                D'ABRAMO                      GABRIELLA           201071948DBRGRL48L41F614S109034110111                                                                              110110130068696 9913 100000000001136331900
110111002506002506Z                                LAZARESCU                     VASILICA            219111970LZRVLC70S59Z129L109027110111                                                                              110120149721300 0113 100000000001136516700
110111002506002506Z                                LAZARESCU                     VASILICA            219111970LZRVLC70S59Z129L109027110111                                                                              110120149721300 9913 100000000001136516700
110111002604002604PDNGMSM54R08E783V                MESSAOUDI                     OMAR                109032006MSSMRO06C09D542K109024110111                                                                              110110056225880 0111 100000000001137926700
110111002604002604PDNGMSM54R08E783V                MESSAOUDI                     OMAR                109032006MSSMRO06C09D542K109024110111                                                                              110110056225880 9911 100000000001137926700
110111002604002604FNZETTL45P20I324O                MOSCA                         BRUNA               215101932MSCBRN32R55I324U109034110111                                                                              110110131300291 0113 100000000001137954500
110111002604002604FNZETTL45P20I324O                MOSCA                         BRUNA               215101932MSCBRN32R55I324U109034110111                                                                              110110131300291 9913 100000000001137954500
110111002000002000FBRCLGU53D11G920S                PALMIERI                      ALFREDO             112041934PLMLRD34D12D542Z109006110111                                                                              110120072088727 0113 100000000001138908300
110111002000002000FBRCLGU53D11G920S                PALMIERI                      ALFREDO             112041934PLMLRD34D12D542Z109006110111                                                                              110120072088727 9913 100000000001138908300
110111002604002604FPNGNRC51P13F522A                TURTU'                        IDA                 229081928TRTDIA28M69I324V109037110111                                                                              110110190287720 0112 100000000001139818500
110111002604002604FPNGNRC51P13F522A                TURTU'                        IDA                 229081928TRTDIA28M69I324V109037110111                                                                              110110190287720 9912 100000000001139818500
110111002506002506FDGCNTN60E07G920Z                TOMASSINI                     PATRIZIA            208111960TMSPRZ60S48G516P109006110111                                                                              110110115376580 0113 100000000001140259800
110111002506002506FDGCNTN60E07G920Z                TOMASSINI                     PATRIZIA            208111960TMSPRZ60S48G516P109006110111                                                                              110110115376580 0213 100000000001140259800
110111002506002506FDGCNTN60E07G920Z                TOMASSINI                     PATRIZIA            208111960TMSPRZ60S48G516P109006110111                                                                              110110115376580 9913 100000000001140259800
110111002604002604FPLCLVR45E51D542G                BAGALINI                      ROBERTO             124071954BGLRRT54L24D542H109006110111                                                                              110120073397823 0112 100000000001141320200
110111002604002604FPLCLVR45E51D542G                BAGALINI                      ROBERTO             124071954BGLRRT54L24D542H109006110111                                                                              110120073397823 9912 100000000001141320200
110111002506002506FCSSNDA54H63B534Y                MURRI                         ILENIA              227071973MRRLNI73L67G920D109001110111                                                                              110120047623296 0113 100000000001141767700
110111002506002506FCSSNDA54H63B534Y                MURRI                         ILENIA              227071973MRRLNI73L67G920D109001110111                                                                              110120047623296 9913 100000000001141767700
110111002604002604FTRBVCN52L24D691X                DE CRISTOFARO                 FILOMENA            230061987DCRFMN87H70I158G109034110111                                                                              110110130729228 0113 100000000001142841400
110111002604002604FTRBVCN52L24D691X                DE CRISTOFARO                 FILOMENA            230061987DCRFMN87H70I158G109034110111                                                                              110110130729228 0213 100000000001142841400
110111002604002604FTRBVCN52L24D691X                DE CRISTOFARO                 FILOMENA            230061987DCRFMN87H70I158G109034110111                                                                              110110130729228 9913 100000000001142841400
110111002506002506Z                                PULCINI                       DANIELA             209021969PLCDNL69B49G516H109025110111                                                                              110120070997657 0113 100000000001144119100
110111002506002506Z                                PULCINI                       DANIELA             209021969PLCDNL69B49G516H109025110111                                                                              110120070997657 9913 100000000001144119100
110111002506002506Z                                PACIARONI                     LAURA               223111961PCRLRA61S63F622W109001110111                                                                              110120072881673 0113 100000000001146169900
110111002506002506Z                                PACIARONI                     LAURA               223111961PCRLRA61S63F622W109001110111                                                                              110120072881673 9913 100000000001146169900
110111002506002506Z                                PISTOLESI                     FILOMENA            220031957PSTFMN57C60F549Q109031110111                                                                              110120149721388 0113 100000000001146246100
110111002506002506Z                                PISTOLESI                     FILOMENA            220031957PSTFMN57C60F549Q109031110111                                                                              110120149721388 9913 100000000001146246100
110111002604002604FRNRPLA53L06D628S                GIACOMOZZI                    RITA                202041956GCMRTI56D42F522E109018110111                                                                              110120136815197 0113 100000000001146349400
110111002604002604FRNRPLA53L06D628S                GIACOMOZZI                    RITA                202041956GCMRTI56D42F522E109018110111                                                                              110120136815197 9913 100000000001146349400
110111002604002604FNZETTL45P20I324O                VITALI                        GIUSEPPE            125021930VTLGPP30B25D542A109034110111                                                                              110110127793182 0112 100000000001146653800
110111002604002604FNZETTL45P20I324O                VITALI                        GIUSEPPE            125021930VTLGPP30B25D542A109034110111                                                                              110110127793182 9912 100000000001146653800
110111002604002604PRCCNLR55D46G403L                D'ABRAMO                      GIULIO              121122006DBRGLI06T21E783P109034110111                                                                              110110129298836 0113 100000000001147834800
110111002604002604PRCCNLR55D46G403L                D'ABRAMO                      GIULIO              121122006DBRGLI06T21E783P109034110111                                                                              110110129298836 9913 100000000001147834800
110111002604002604PCTRFMS67S27G920A                ZALLOCCO                      MICHELE             121042006ZLLMHL06D21H211D043028110108                                                                              110110212989950 0113 100000000001147860000
110111002604002604PCTRFMS67S27G920A                ZALLOCCO                      MICHELE             121042006ZLLMHL06D21H211D043028110108                                                                              110110212989950 9913 100000000001147860000
110111002604002604Z                                APOSTOLI                      HELENI              123061994PSTHLN94H23Z100G044029110112                                                                              110120048724233 0112 100000000001148903500
110111002604002604Z                                APOSTOLI                      HELENI              123061994PSTHLN94H23Z100G044029110112                                                                              110120048724233 0212 100000000001148903500
110111002604002604Z                                APOSTOLI                      HELENI              123061994PSTHLN94H23Z100G044029110112                                                                              110120048724233 9912 100000000001148903500
110111002604002604FRCLPLA59A03H501F                VALLESI                       IRMA                227091943VLLRMI43P67E447K109034110111                                                                              110120006067765 0113 100000000001149673400
110111002604002604FRCLPLA59A03H501F                VALLESI                       IRMA                227091943VLLRMI43P67E447K109034110111                                                                              110120006067765 9913 100000000001149673400
110111002604002604FSRFNRC58P07I324C                MARINANGELI                   ENIO                127081933MRNNEI33M27F622D109034110111                                                                              110110131355371 0112 100000000001149685300
110111002604002604FSRFNRC58P07I324C                MARINANGELI                   ENIO                127081933MRNNEI33M27F622D109034110111                                                                              110110131355371 9912 100000000001149685300
110111002604002604FMRZDDL54E16F522Q                DEZI                          ITALO               114041947DZETLI47D14F522A109018110111                                                                              110120137006594 0112 100000000001150715100
110111002604002604FMRZDDL54E16F522Q                DEZI                          ITALO               114041947DZETLI47D14F522A109018110111                                                                              110120137006594 9912 100000000001150715100
110111111311111311FMNTNRC50H21H612Y                PAGLIUCA                      LUIGI               112031941PGLLGU41C12H501W109019110111                                                                              110120011800866 0113 100000000001151306300
110111111311111311FMNTNRC50H21H612Y                PAGLIUCA                      LUIGI               112031941PGLLGU41C12H501W109019110111                                                                              110120011800866 9913 100000000001151306300
110111002604002604Z                                PETRUZZELLIS                  FILIPPO             126021943PTRFPP43B26A048C109034110111                                                                              110120074282850 0113 100000000001152858200
110111002604002604Z                                PETRUZZELLIS                  FILIPPO             126021943PTRFPP43B26A048C109034110111                                                                              110120074282850 9913 100000000001152858200
110111002604002604FNZETTL45P20I324O                OLIVIERI                      GIUSEPPE            106051941LVRGPP41E06I324N109034110111                                                                              110110130764780 0112 100000000001153127000
110111002604002604FNZETTL45P20I324O                OLIVIERI                      GIUSEPPE            106051941LVRGPP41E06I324N109034110111                                                                              110110130764780 9912 100000000001153127000
110111002604002604FLCNVRN56L17D760G                MAZZA                         GINO                104081930MZZGNI30M04F522D109018110111                                                                              110120136907278 0111 100000000001153222100
110111002604002604FLCNVRN56L17D760G                MAZZA                         GINO                104081930MZZGNI30M04F522D109018110111                                                                              110120136907278 9911 100000000001153222100
110111002604002604FMRSLRD50P04G516Z                SPARAPANI                     ALBERTO             130041938SPRLRT38D30A044J109022110111                                                                              110120154865428 0111 100000000001153243800
110111002604002604FMRSLRD50P04G516Z                SPARAPANI                     ALBERTO             130041938SPRLRT38D30A044J109022110111                                                                              110120154865428 9911 100000000001153243800
110111002604002604FPPGSFN57P29G920X                ANTONINI                      MARIA RITA          201071949NTNMRT49L41A462O109033110111                                                                              110120073202242 0112 100000000001153825900
110111002604002604FPPGSFN57P29G920X                ANTONINI                      MARIA RITA          201071949NTNMRT49L41A462O109033110111                                                                              110120073202242 9912 100000000001153825900
110111002604002604FSCRFNC53R11F517G                GIACOBBI                      LUIGI               109011927GCBLGU27A09F517D109023110111                                                                              110120138042450 0112 100000000001154641100
110111002604002604FSCRFNC53R11F517G                GIACOBBI                      LUIGI               109011927GCBLGU27A09F517D109023110111                                                                              110120138042450 9912 100000000001154641100
110111002604002604FCTSSDR49B16B534I                REGINELLI                     EMIDIO              124031934RGNMDE34C24A270T109033110111                                                                              110120140719375 0113 100000000001155345000
110111002604002604FCTSSDR49B16B534I                REGINELLI                     EMIDIO              124031934RGNMDE34C24A270T109033110111                                                                              110120140719375 9913 100000000001155345000
110111002604002604FBLLFRC56T15G921C                DI ROSA                       GUIDO               127011931DRSGDU31A27I324T109034110111                                                                              110110131890511 0112 100000000001156996300
110111002604002604FBLLFRC56T15G921C                DI ROSA                       GUIDO               127011931DRSGDU31A27I324T109034110111                                                                              110110131890511 9912 100000000001156996300
110111002604002604FMRTNGL54E25G921C                BEATO                         NAZZARENO           110111927BTENZR27S10I324D109034110111                                                                              110110130642457 0112 100000000001157295100
110111002604002604FMRTNGL54E25G921C                BEATO                         NAZZARENO           110111927BTENZR27S10I324D109034110111                                                                              110110130642457 9912 100000000001157295100
110111002604002604FDRGMRA52B19D542R                DEL BIGIO                     LUCIANO             120111946DLBLCN46S20D542Y109033110111                                                                              110110231249352 0113 100000000001157666200
110111002604002604FDRGMRA52B19D542R                DEL BIGIO                     LUCIANO             120111946DLBLCN46S20D542Y109033110111                                                                              110110231249352 9913 100000000001157666200
110111002604002604FCSCMCR54B62F496Y                SARDINI                       MARIO               130111934SRDMRA34S30D477P109037110111                                                                              110110211060822 0111 100000000001158536000
110111002604002604FCSCMCR54B62F496Y                SARDINI                       MARIO               130111934SRDMRA34S30D477P109037110111                                                                              110110211060822 0211 100000000001158536000
110111002604002604FCSCMCR54B62F496Y                SARDINI                       MARIO               130111934SRDMRA34S30D477P109037110111                                                                              110110211060822 0311 100000000001158536000
110111002604002604FCSCMCR54B62F496Y                SARDINI                       MARIO               130111934SRDMRA34S30D477P109037110111                                                                              110110211060822 9911 100000000001158536000
110111002604002604FLNDVCN54M29B169T                CAPRIOTTI                     NELLO               108041925CPRNLL25D08D542N109006110111                                                                              110120140805000 0112 100000000001158609700
110111002604002604FLNDVCN54M29B169T                CAPRIOTTI                     NELLO               108041925CPRNLL25D08D542N109006110111                                                                              110120140805000 9912 100000000001158609700
110111002604002604FGMPGRG54L17A462F                RENZI                         ORLANDO             113021935RNZRND35B13C770B109034110111                                                                              110110211060833 0111 100000000001158615700
110111002604002604FGMPGRG54L17A462F                RENZI                         ORLANDO             113021935RNZRND35B13C770B109034110111                                                                              110110211060833 0211 100000000001158615700
110111002604002604FGMPGRG54L17A462F                RENZI                         ORLANDO             113021935RNZRND35B13C770B109034110111                                                                              110110211060833 0311 100000000001158615700
110111002604002604FGMPGRG54L17A462F                RENZI                         ORLANDO             113021935RNZRND35B13C770B109034110111                                                                              110110211060833 9911 100000000001158615700
110111002604002604PDGLSCR63E27L103R                FELICI                        LEONARDO            102072009FLCLRD09L02C770T109034110111                                                                              110110129199691 0113 100000000001158621400
110111002604002604PDGLSCR63E27L103R                FELICI                        LEONARDO            102072009FLCLRD09L02C770T109034110111                                                                              110110129199691 9913 100000000001158621400
110111002604002604FCSCMCR54B62F496Y                MECOZZI                       DINO                130051927MCZDNI27E30I324V109037110111                                                                              110120074110961 0112 100000000001158821500
110111002604002604FCSCMCR54B62F496Y                MECOZZI                       DINO                130051927MCZDNI27E30I324V109037110111                                                                              110120074110961 9912 100000000001158821500
110111002604002604FPTRRNZ60C09G920H                SANTONI                       MARIO               127041938SNTMRA38D27D542V109033110111                                                                              110120141526721 0112 100000000001158893300
110111002604002604FPTRRNZ60C09G920H                SANTONI                       MARIO               127041938SNTMRA38D27D542V109033110111                                                                              110120141526721 9912 100000000001158893300
110111002604002604FBRCLGU53D11G920S                PASCUCCI                      ROCCO DOMENICO      103081949PSCRCD49M03F494W109006110111                                                                              110120072096772 0113 100000000001158910600
110111002604002604FBRCLGU53D11G920S                PASCUCCI                      ROCCO DOMENICO      103081949PSCRCD49M03F494W109006110111                                                                              110120072096772 9913 100000000001158910600
110111002604002604FBRCLGU53D11G920S                PASCUCCI                      ROCCO DOMENICO      103081949PSCRCD49M03F494W109006110111                                                                              110120072096761 0113 100000000001158937000
110111002604002604FBRCLGU53D11G920S                PASCUCCI                      ROCCO DOMENICO      103081949PSCRCD49M03F494W109006110111                                                                              110120072096761 0213 100000000001158937000
110111002604002604FBRCLGU53D11G920S                PASCUCCI                      ROCCO DOMENICO      103081949PSCRCD49M03F494W109006110111                                                                              110120072096761 9913 100000000001158937000
110111002604002604FMRTNGL54E25G921C                PASQUALINI                    FRANCESCO           114031934PSQFNC34C14G005W109034110111                                                                              110110127437232 0112 100000000001159053600
110111002604002604FMRTNGL54E25G921C                PASQUALINI                    FRANCESCO           114031934PSQFNC34C14G005W109034110111                                                                              110110127437232 9912 100000000001159053600
110111002604002604FBSSSFN51T26H501J                SILLA                         VIOLA               217111940SLLVLI40S57G403V109034110111                                                                              110110128339954 0113 100000000001159256900
110111002604002604FBSSSFN51T26H501J                SILLA                         VIOLA               217111940SLLVLI40S57G403V109034110111                                                                              110110128339954 9913 100000000001159256900
110111002604002604FBSSSFN51T26H501J                COGNIGNI                      GIUSEPPINA          218021952CGNGPP52B58I324Q109034110111                                                                              110110128338828 0112 100000000001159493800
110111002604002604FBSSSFN51T26H501J                COGNIGNI                      GIUSEPPINA          218021952CGNGPP52B58I324Q109034110111                                                                              110110128338828 9912 100000000001159493800
110111002604002604FLMPGNN55A12G920J                ALBERTI                       MARIA ANTONIETTA    217041956LBRMNT56D57A462C109033110111                                                                              110120141121776 0112 100000000001159566300
110111002604002604FLMPGNN55A12G920J                ALBERTI                       MARIA ANTONIETTA    217041956LBRMNT56D57A462C109033110111                                                                              110120141121776 9912 100000000001159566300
110111002604002604FTRBVCN52L24D691X                RENZI                         ANGELITA            221061933RNZNLT33H61I324J109034110111                                                                              110110130727902 0111 100000000001159972800
110111002604002604FTRBVCN52L24D691X                RENZI                         ANGELITA            221061933RNZNLT33H61I324J109034110111                                                                              110110130727902 9911 100000000001159972800
110111002604002604PDMRVGN63C66H703V                BALACCO                       GIULIA              222052006BLCGLI06E62A271V109033110111                                                                              110110230692533 0113 100000000001160326300
110111002604002604PDMRVGN63C66H703V                BALACCO                       GIULIA              222052006BLCGLI06E62A271V109033110111                                                                              110110230692533 9913 100000000001160326300
110111002604002604PDRRMTT58C28D643X                MINNUCCI                      ELENA               221102003MNNLNE03R61D542Z109006110111                                                                              110110127941434 0113 100000000001160653000
110111002604002604PDRRMTT58C28D643X                MINNUCCI                      ELENA               221102003MNNLNE03R61D542Z109006110111                                                                              110110127941434 9913 100000000001160653000
110111002604002604FTRBVCN52L24D691X                CAPRIOTTI                     GEREMIA             120121922CPRGRM22T20F415C109034110111                                                                              110110130729083 0112 100000000001160963000
110111002604002604FTRBVCN52L24D691X                CAPRIOTTI                     GEREMIA             120121922CPRGRM22T20F415C109034110111                                                                              110110130729083 0212 100000000001160963000
110111002604002604FTRBVCN52L24D691X                CAPRIOTTI                     GEREMIA             120121922CPRGRM22T20F415C109034110111                                                                              110110130729083 9912 100000000001160963000
110111002604002604FTRBVCN52L24D691X                D'ANGELO                      ELIA                220081932DNGLEI32M60F487G109034110111                                                                              110110130729094 0112 100000000001160967000
110111002604002604FTRBVCN52L24D691X                D'ANGELO                      ELIA                220081932DNGLEI32M60F487G109034110111                                                                              110110130729094 0212 100000000001160967000
110111002604002604FTRBVCN52L24D691X                D'ANGELO                      ELIA                220081932DNGLEI32M60F487G109034110111                                                                              110110130729094 9912 100000000001160967000
110111002604002604FTBRNDR54R25D542V                MANCINI                       VINCENZO            107021938MNCVCN38B07I324D109037110111                                                                              110120005878293 0112 100000000001161430500
110111002604002604FTBRNDR54R25D542V                MANCINI                       VINCENZO            107021938MNCVCN38B07I324D109037110111                                                                              110120005878293 9912 100000000001161430500
110111002604002604FNZETTL45P20I324O                TOMASSINI                     GINO                110061947TMSGNI47H10D542C109034110111                                                                              110120074219455 0112 100000000001161978700
110111002604002604FNZETTL45P20I324O                TOMASSINI                     GINO                110061947TMSGNI47H10D542C109034110111                                                                              110120074219455 9912 100000000001161978700
110111002604002604FDMNVCN46P08L113E                MARCONI                       ADA                 207021932MRCDAA32B47F653C109035110111                                                                              110120005436584 0113 100000000001162140600
110111002604002604FDMNVCN46P08L113E                MARCONI                       ADA                 207021932MRCDAA32B47F653C109035110111                                                                              110120005436584 9913 100000000001162140600
110111002604002604FMSRPLA61L01E783P                MECOZZI                       MAURO               122081965MCZMRA65M22I324E109037110111                                                                              110110239558793 0113 100000000001162615800
110111002604002604FMSRPLA61L01E783P                MECOZZI                       MAURO               122081965MCZMRA65M22I324E109037110111                                                                              110110239558793 9913 100000000001162615800
110111002604002604FCMDLEI52B03F522V                GIULIODORI                    LEONARDO            110051950GLDLRD50E10F496N109018110111                                                                              110120138150257 0112 100000000001163595300
110111002604002604FCMDLEI52B03F522V                GIULIODORI                    LEONARDO            110051950GLDLRD50E10F496N109018110111                                                                              110120138150257 9912 100000000001163595300
110111002604002604FBSSSFN51T26H501J                CAPPARUCCINI                  AMEDEO              120071954CPPMDA54L20I324O109034110111                                                                              110110131171038 0113 100000000001164202000
110111002604002604FBSSSFN51T26H501J                CAPPARUCCINI                  AMEDEO              120071954CPPMDA54L20I324O109034110111                                                                              110110131171038 9913 100000000001164202000
110111002604002604FSRFNRC58P07I324C                MARROCCHELLA                  GIUSEPPE            101011951MRRGPP51A01I054B109034110111                                                                              110110130767603 0112 100000000001164368700
110111002604002604FSRFNRC58P07I324C                MARROCCHELLA                  GIUSEPPE            101011951MRRGPP51A01I054B109034110111                                                                              110110130767603 9912 100000000001164368700
110111002604002604FMRCDNL52C66C632K                MARIUCCI                      FRANCO              130091947MRCFNC47P30F415O109006110111                                                                              110120073152268 0113 100000000001164435300
110111002604002604FMRCDNL52C66C632K                MARIUCCI                      FRANCO              130091947MRCFNC47P30F415O109006110111                                                                              110120073152268 9913 100000000001164435300
110111002604002604FCTNDGI55A18A462Z                BERNABEI                      GENOVINO            113031940BRNGVN40C13F576Y109034110111                                                                              110110132318450 0113 100000000001165456400
110111002604002604FCTNDGI55A18A462Z                BERNABEI                      GENOVINO            113031940BRNGVN40C13F576Y109034110111                                                                              110110132318450 9913 100000000001165456400
110111002604002604FMZZMRN52C13I324X                ZAMPALONI                     GENESIO             127021942ZMPGNS42B27I324I109034110111                                                                              110110128298014 0112 100000000001165977800
110111002604002604FMZZMRN52C13I324X                ZAMPALONI                     GENESIO             127021942ZMPGNS42B27I324I109034110111                                                                              110110128298014 0212 100000000001165977800
110111002604002604FMZZMRN52C13I324X                ZAMPALONI                     GENESIO             127021942ZMPGNS42B27I324I109034110111                                                                              110110128298014 9912 100000000001165977800
110111002604002604FMZZMRN52C13I324X                ZAMPALONI                     GENESIO             127021942ZMPGNS42B27I324I109034110111                                                                              110110128298025 0112 100000000001165996500
110111002604002604FMZZMRN52C13I324X                ZAMPALONI                     GENESIO             127021942ZMPGNS42B27I324I109034110111                                                                              110110128298025 9912 100000000001165996500
110111002604002604FTDRSRG58A01D477L                BRAVI                         MARIA GIOVANNA      222121953BRVMGV53T62H501G109005110111                                                                              110120134937674 0112 100000000001166245800
110111002604002604FTDRSRG58A01D477L                BRAVI                         MARIA GIOVANNA      222121953BRVMGV53T62H501G109005110111                                                                              110120134937674 9912 100000000001166245800
110111002604002604FBCLRRT56M18G920H                DE SIMONE                     DONATO              128031945DSMDNT45C28L273Z109006110111                                                                              110120140671394 0113 100000000001166280900
110111002604002604FBCLRRT56M18G920H                DE SIMONE                     DONATO              128031945DSMDNT45C28L273Z109006110111                                                                              110120140671394 9913 100000000001166280900
110111002604002604FMNZLGU55P22I324Y                MALINTOPPI                    ALDEBRANDA          220111944MLNLBR44S60F653L109037110111                                                                              110110189209417 0112 100000000001166946700
110111002604002604FMNZLGU55P22I324Y                MALINTOPPI                    ALDEBRANDA          220111944MLNLBR44S60F653L109037110111                                                                              110110189209417 9912 100000000001166946700
110111002604002604FMRCDNL52C66C632K                ARAMINI                       ANNA                204051935RMNNNA35E44G873Q109006110111                                                                              110120141976405 0112 100000000001167936400
110111002604002604FMRCDNL52C66C632K                ARAMINI                       ANNA                204051935RMNNNA35E44G873Q109006110111                                                                              110120141976405 9912 100000000001167936400
110111002604002604FCTNDGI55A18A462Z                ALESSANDRINI                  ISOLINA             228101931LSSSLN31R68I324G109034110111                                                                              110120074211884 0112 100000000001168051700
110111002604002604FCTNDGI55A18A462Z                ALESSANDRINI                  ISOLINA             228101931LSSSLN31R68I324G109034110111                                                                              110120074211884 9912 100000000001168051700
110111002604002604FCTNDGI55A18A462Z                MORETTI                       SILVANO             106081932MRTSVN32M06F653I109034110111                                                                              110120074211906 0113 100000000001168073700
110111002604002604FCTNDGI55A18A462Z                MORETTI                       SILVANO             106081932MRTSVN32M06F653I109034110111                                                                              110120074211906 9913 100000000001168073700
110111002604002604FLCNVRN56L17D760G                DI ROSA                       MARIA               209011935DRSMRA35A49I324Q109018110111                                                                              110120136908922 0112 100000000001168451400
110111002604002604FLCNVRN56L17D760G                DI ROSA                       MARIA               209011935DRSMRA35A49I324Q109018110111                                                                              110120136908922 9912 100000000001168451400
110111002604002604FSRFNRC58P07I324C                VERDICCHIO                    FIORELLA            202121957VRDFLL57T42I324T109034110111                                                                              110110130768481 0112 100000000001168454900
110111002604002604FSRFNRC58P07I324C                VERDICCHIO                    FIORELLA            202121957VRDFLL57T42I324T109034110111                                                                              110110130768481 9912 100000000001168454900
110111002604002604FSPNMRA46P12E207N                MINNONI                       PAOLO               123091965MNNPLA65P23D542X109006110111                                                                              110120141721334 0112 100000000001169115000
110111002604002604FSPNMRA46P12E207N                MINNONI                       PAOLO               123091965MNNPLA65P23D542X109006110111                                                                              110120141721334 9912 100000000001169115000
110111002604002604FMZZGNN46D25I324M                FELIZIANI                     GRAZIANO            126081936FLZGZN36M26A252W109034110111                                                                              110110127947126 0111 100000000001169323300
110111002604002604FMZZGNN46D25I324M                FELIZIANI                     GRAZIANO            126081936FLZGZN36M26A252W109034110111                                                                              110110127947126 0211 100000000001169323300
110111002604002604FMZZGNN46D25I324M                FELIZIANI                     GRAZIANO            126081936FLZGZN36M26A252W109034110111                                                                              110110127947126 9911 100000000001169323300
110111002604002604FMNTZEI46M24I324B                RENZI                         NORINA              204031931RNZNRN31C44I324A109034110111                                                                              110110127947137 0111 100000000001169415900
110111002604002604FMNTZEI46M24I324B                RENZI                         NORINA              204031931RNZNRN31C44I324A109034110111                                                                              110110127947137 0211 100000000001169415900
110111002604002604FMNTZEI46M24I324B                RENZI                         NORINA              204031931RNZNRN31C44I324A109034110111                                                                              110110127947137 0311 100000000001169415900
110111002604002604FMNTZEI46M24I324B                RENZI                         NORINA              204031931RNZNRN31C44I324A109034110111                                                                              110110127947137 9911 100000000001169415900
110111002604002604FMZZMRN52C13I324X                CHIODI                        VALENTINA           203051939CHDVNT39E43F501D109034110111                                                                              110110128314822 0112 100000000001170194100
110111002604002604FMZZMRN52C13I324X                CHIODI                        VALENTINA           203051939CHDVNT39E43F501D109034110111                                                                              110110128314822 0212 100000000001170194100
110111002604002604FMZZMRN52C13I324X                CHIODI                        VALENTINA           203051939CHDVNT39E43F501D109034110111                                                                              110110128314822 9912 100000000001170194100
110111002604002604FPZZVNT54D46G921B                PIRRO                         MARIA PIA           229011942PRRMRP42A69I324Y109034110111                                                                              110120073882574 0112 100000000001170764600
110111002604002604FPZZVNT54D46G921B                PIRRO                         MARIA PIA           229011942PRRMRP42A69I324Y109034110111                                                                              110120073882574 0212 100000000001170764600
110111002604002604FPZZVNT54D46G921B                PIRRO                         MARIA PIA           229011942PRRMRP42A69I324Y109034110111                                                                              110120073882574 9912 100000000001170764600
110111002604002604FGCMNRC51A01B474V                MATTIOZZI                     LUIGI               110111952MTTLGU52S10I324W109024110111                                                                              110110188991347 0112 100000000001171237700
110111002604002604FGCMNRC51A01B474V                MATTIOZZI                     LUIGI               110111952MTTLGU52S10I324W109024110111                                                                              110110188991347 0212 100000000001171237700
110111002604002604FGCMNRC51A01B474V                MATTIOZZI                     LUIGI               110111952MTTLGU52S10I324W109024110111                                                                              110110188991347 9912 100000000001171237700
110111002604002604FCTNDGI55A18A462Z                RIPARI                        SERGIO              127101949RPRSRG49R27I324E109034110111                                                                              110110132309270 0113 100000000001171548400
110111002604002604FCTNDGI55A18A462Z                RIPARI                        SERGIO              127101949RPRSRG49R27I324E109034110111                                                                              110110132309270 9913 100000000001171548400
110111002604002604FCTNDGI55A18A462Z                MARINANGELI                   MARIA               215091918MRNMRA18P55D542Z109034110111                                                                              110110132291415 0112 100000000001171603100
110111002604002604FCTNDGI55A18A462Z                MARINANGELI                   MARIA               215091918MRNMRA18P55D542Z109034110111                                                                              110110132291415 0212 100000000001171603100
110111002604002604FCTNDGI55A18A462Z                MARINANGELI                   MARIA               215091918MRNMRA18P55D542Z109034110111                                                                              110110132291415 9912 100000000001171603100
110111002604002604FTRBVCN52L24D691X                BASSO                         GIACOMO             112081925BSSGCM25M12I324J109034110111                                                                              110110130725606 0113 100000000001171835800
110111002604002604FTRBVCN52L24D691X                BASSO                         GIACOMO             112081925BSSGCM25M12I324J109034110111                                                                              110110130725606 9913 100000000001171835800
110111002604002604FPZZVNT54D46G921B                PAOLETTI                      ADRIANO             108021928PLTDRN28B08I324G109034110111                                                                              110120073884666 0113 100000000001172687200
110111002604002604FPZZVNT54D46G921B                PAOLETTI                      ADRIANO             108021928PLTDRN28B08I324G109034110111                                                                              110120073884666 9913 100000000001172687200
110111002604002604FMGNRPT60H65F722H                SACRIPANTI                    GIANLUCA            117031960SCRGLC60C17F509H109034110111                                                                              110110131175022 0112 100000000001173850700
110111002604002604FMGNRPT60H65F722H                SACRIPANTI                    GIANLUCA            117031960SCRGLC60C17F509H109034110111                                                                              110110131175022 0212 100000000001173850700
110111002604002604FMGNRPT60H65F722H                SACRIPANTI                    GIANLUCA            117031960SCRGLC60C17F509H109034110111                                                                              110110131175022 9912 100000000001173850700
110111002604002604FCSCMCR54B62F496Y                POMPINI                       LUCIANO             118061932PMPLCN32H18I324P109037110111                                                                              110120073806254 0113 100000000001173979000
110111002604002604FCSCMCR54B62F496Y                POMPINI                       LUCIANO             118061932PMPLCN32H18I324P109037110111                                                                              110120073806254 9913 100000000001173979000
110111002604002604FSCNGNN55L64H224D                TAVONI                        GIANCARLO           128051966TVNGCR66E28D749X109006110111                                                                              110120140733955 0112 100000000001174752900
110111002604002604FSCNGNN55L64H224D                TAVONI                        GIANCARLO           128051966TVNGCR66E28D749X109006110111                                                                              110120140733955 9912 100000000001174752900
110111002604002604FBSSSFN51T26H501J                BIANCUCCI                     LUCIANO             115121927BNCLCN27T15I324J109034110111                                                                              110110128331617 0113 100000000001174770700
110111002604002604FBSSSFN51T26H501J                BIANCUCCI                     LUCIANO             115121927BNCLCN27T15I324J109034110111                                                                              110110128331617 9913 100000000001174770700
110111002604002604FBCLRRT56M18G920H                DE ANTONIIS                   MARIA               229041943DNTMRA43D69C040E109006110111                                                                              110120071932173 0111 100000000001174829600
110111002604002604FBCLRRT56M18G920H                DE ANTONIIS                   MARIA               229041943DNTMRA43D69C040E109006110111                                                                              110120071932173 9911 100000000001174829600
110111002604002604FTRBVCN52L24D691X                MARINI                        ELIO                102041943MRNLEI43D02A233S109034110111                                                                              110110130751605 0112 100000000001174878600
110111002604002604FTRBVCN52L24D691X                MARINI                        ELIO                102041943MRNLEI43D02A233S109034110111                                                                              110110130751605 0212 100000000001174878600
110111002604002604FTRBVCN52L24D691X                MARINI                        ELIO                102041943MRNLEI43D02A233S109034110111                                                                              110110130751605 9912 100000000001174878600
110111002604002604FTRBVCN52L24D691X                ARNODO                        SILVIA ESTHER       215021946RNDSVS46B55Z600S109034110111                                                                              110110130751616 0112 100000000001174928800
110111002604002604FTRBVCN52L24D691X                ARNODO                        SILVIA ESTHER       215021946RNDSVS46B55Z600S109034110111                                                                              110110130751616 0212 100000000001174928800
110111002604002604FTRBVCN52L24D691X                ARNODO                        SILVIA ESTHER       215021946RNDSVS46B55Z600S109034110111                                                                              110110130751616 9912 100000000001174928800
110111002604002604FCRPLTT55S63I324I                IACARUSO                      FRANCESCO VINCENZO  109111963CRSFNC63S09A339N109034110111                                                                              110110127702776 0112 100000000001175097000
110111002604002604FCRPLTT55S63I324I                IACARUSO                      FRANCESCO VINCENZO  109111963CRSFNC63S09A339N109034110111                                                                              110110127702776 9912 100000000001175097000
110111002604002604FMCZGPP51L16F493B                BONIFAZI                      PIETRO              111081952BNFPTR52M11D542B109006110111                                                                              110120072705521 0112 100000000001175124600
110111002604002604FMCZGPP51L16F493B                BONIFAZI                      PIETRO              111081952BNFPTR52M11D542B109006110111                                                                              110120072705521 9912 100000000001175124600
110111002604002604FBCLRRT56M18G920H                DEMBELE                       AISSATA             207101974DMBSST74R47Z313C109006110111                                                                              110120140674803 0113 100000000001175142200
110111002604002604FBCLRRT56M18G920H                DEMBELE                       AISSATA             207101974DMBSST74R47Z313C109006110111                                                                              110120140674803 9913 100000000001175142200
110111002604002604FMZZGNN46D25I324M                MACRILLANTE                   DANIELE             111121960MCRDNL60T11G921R109034110111                                                                              110120074403000 0112 100000000001175247000
110111002604002604FMZZGNN46D25I324M                MACRILLANTE                   DANIELE             111121960MCRDNL60T11G921R109034110111                                                                              110120074403000 9912 100000000001175247000
110111002604002604FMZZGNN46D25I324M                COGNIGNI                      VITTORIO            123051943CGNVTR43E23I324J109034110111                                                                              110120074419481 0111 100000000001175336300
110111002604002604FMZZGNN46D25I324M                COGNIGNI                      VITTORIO            123051943CGNVTR43E23I324J109034110111                                                                              110120074419481 9911 100000000001175336300
110111002604002604FMNZLGU55P22I324Y                ABRAMI                        ANNA MARIA          229031954BRMNMR54C69G921F109037110111                                                                              110120074827034 0112 100000000001175376000
110111002604002604FMNZLGU55P22I324Y                ABRAMI                        ANNA MARIA          229031954BRMNMR54C69G921F109037110111                                                                              110120074827034 9912 100000000001175376000
110111002604002604FMMILFR50E13F428Z                FERMANI                       PATRIZIO            104121955FRMPRZ55T04F021P109033110111                                                                              110120134836108 0112 100000000001175901100
110111002604002604FMMILFR50E13F428Z                FERMANI                       PATRIZIO            104121955FRMPRZ55T04F021P109033110111                                                                              110120134836108 9912 100000000001175901100
110111002604002604FCRPLTT55S63I324I                MONACO                        CONCETTA ANGELA     206011949MNCCCT49A46H574G109034110111                                                                              110110127702721 0112 100000000001176274600
110111002604002604FCRPLTT55S63I324I                MONACO                        CONCETTA ANGELA     206011949MNCCCT49A46H574G109034110111                                                                              110110127702721 0212 100000000001176274600
110111002604002604FCRPLTT55S63I324I                MONACO                        CONCETTA ANGELA     206011949MNCCCT49A46H574G109034110111                                                                              110110127702721 9912 100000000001176274600
110111002604002604FCRPLTT55S63I324I                MONACO                        CONCETTA ANGELA     206011949MNCCCT49A46H574G109034110111                                                                              110110127702732 0112 100000000001176289800
110111002604002604FCRPLTT55S63I324I                MONACO                        CONCETTA ANGELA     206011949MNCCCT49A46H574G109034110111                                                                              110110127702732 9912 100000000001176289800
110111002604002604FFZAPLA55E08M018H                FUNARI                        GIUSEPPE            121121936FNRGPP36T21C935W109006110111                                                                              110120072766945 0113 100000000001176621300
110111002604002604FFZAPLA55E08M018H                FUNARI                        GIUSEPPE            121121936FNRGPP36T21C935W109006110111                                                                              110120072766945 9913 100000000001176621300
110111002604002604FCTNDGI55A18A462Z                CASTELLI                      GIULIANA            217031951CSTGLN51C57F722A109034110111                                                                              110110131541006 0112 100000000001178079000
110111002604002604FCTNDGI55A18A462Z                CASTELLI                      GIULIANA            217031951CSTGLN51C57F722A109034110111                                                                              110110131541006 9912 100000000001178079000
110111002604002604FCTNDGI55A18A462Z                PRINCIPI                      VENANZO             110111940PRNVNZ40S10H211M109034110111                                                                              110110131541164 0113 100000000001178379900
110111002604002604FCTNDGI55A18A462Z                PRINCIPI                      VENANZO             110111940PRNVNZ40S10H211M109034110111                                                                              110110131541164 9913 100000000001178379900
110111002604002604FSRFNRC58P07I324C                RENZI                         IVANA               212041929RNZVNI29D52I324U109034110111                                                                              110100117627491 0113 100000000001178923900
110111002604002604FSRFNRC58P07I324C                RENZI                         IVANA               212041929RNZVNI29D52I324U109034110111                                                                              110100117627491 9913 100000000001178923900
110111002604002604FMNCDNL63C57C770M                VIRGILI                       DOMENICO            115011939VRGDNC39A15F664D109034110111                                                                              110110132071218 0112 100000000001179519300
110111002604002604FMNCDNL63C57C770M                VIRGILI                       DOMENICO            115011939VRGDNC39A15F664D109034110111                                                                              110110132071218 9912 100000000001179519300
110111002604002604FTRBVCN52L24D691X                DELLA VALLE                   MARIA               215101934DLLMRA34R55I324B109034110111                                                                              110110130739152 0113 100000000001179684000
110111002604002604FTRBVCN52L24D691X                DELLA VALLE                   MARIA               215101934DLLMRA34R55I324B109034110111                                                                              110110130739152 9913 100000000001179684000
110111002604002604FSRMGNN51R06H501N                IUZZARELLI                    VANDA               216111931ZZRVND31S56D870O109033110111                                                                              110120138645865 0113 100000000001180106500
110111002604002604FSRMGNN51R06H501N                IUZZARELLI                    VANDA               216111931ZZRVND31S56D870O109033110111                                                                              110120138645865 9913 100000000001180106500
110111002604002604FSRMGNN51R06H501N                CORINALDESI                   MARIA               216041945CRNMRA45D56G803F109033110111                                                                              110120138645145 0112 100000000001180192600
110111002604002604FSRMGNN51R06H501N                CORINALDESI                   MARIA               216041945CRNMRA45D56G803F109033110111                                                                              110120138645145 9912 100000000001180192600
110111002604002604FCMDLEI52B03F522V                MALVESTITI                    ANNA MARIA          229111945MLVNMR45S69F522J109018110111                                                                              110120138156164 0112 100000000001180234800
110111002604002604FCMDLEI52B03F522V                MALVESTITI                    ANNA MARIA          229111945MLVNMR45S69F522J109018110111                                                                              110120138156164 0212 100000000001180234800
110111002604002604FCMDLEI52B03F522V                MALVESTITI                    ANNA MARIA          229111945MLVNMR45S69F522J109018110111                                                                              110120138156164 9912 100000000001180234800
110111002604002604FCRPLTT55S63I324I                SERAFINI                      AURELIA             230081941SRFRLA41M70D542U109034110111                                                                              110110127409927 0112 100000000001180438700
110111002604002604FCRPLTT55S63I324I                SERAFINI                      AURELIA             230081941SRFRLA41M70D542U109034110111                                                                              110110127409927 9912 100000000001180438700
110111002000002000FPTRPTR52L20D542T                QUADRINI                      SERGIO              111041938QDRSRG38D11L279M109006110111                                                                              110120138938310 0113 100000000001180613400
110111002000002000FPTRPTR52L20D542T                QUADRINI                      SERGIO              111041938QDRSRG38D11L279M109006110111                                                                              110120138938310 9913 100000000001180613400
110111002604002604FGCMNRC51A01B474V                MANCINI                       MARIA GRAZIA        224081947MNCMGR47M64A271L109024110111                                                                              110110188985172 0112 100000000001180781700
110111002604002604FGCMNRC51A01B474V                MANCINI                       MARIA GRAZIA        224081947MNCMGR47M64A271L109024110111                                                                              110110188985172 0212 100000000001180781700
110111002604002604FGCMNRC51A01B474V                MANCINI                       MARIA GRAZIA        224081947MNCMGR47M64A271L109024110111                                                                              110110188985172 9912 100000000001180781700
110111002604002604FMRTNGL54E25G921C                MEDAGLIA                      ANGELO              118081939MDGNGL39M18I324Z109034110111                                                                              110110130714716 0112 100000000001181638600
110111002604002604FMRTNGL54E25G921C                MEDAGLIA                      ANGELO              118081939MDGNGL39M18I324Z109034110111                                                                              110110130714716 9912 100000000001181638600
110111002604002604FMRTNGL50M12F520Q                PAVONI                        GIULIANA            218121958PVNGLN58T58I324W109024110111                                                                              110120005811186 0112 100000000001181831900
110111002604002604FMRTNGL50M12F520Q                PAVONI                        GIULIANA            218121958PVNGLN58T58I324W109024110111                                                                              110120005811186 9912 100000000001181831900
110111002604002604FBCLRRT56M18G920H                BERRAHMOUNE                   OUMHANI             204021985BRRMHN85B44Z301G109006110111                                                                              110120140674678 0113 100000000001182431600
110111002604002604FBCLRRT56M18G920H                BERRAHMOUNE                   OUMHANI             204021985BRRMHN85B44Z301G109006110111                                                                              110120140674678 9913 100000000001182431600
110111002000002000FLMPGNN55A12G920J                PENNACCHIETTI                 GUERRINO            116061929PNNGRN29H16D542F109033110111                                                                              110120141127312 0113 100000000001182541300
110111002000002000FLMPGNN55A12G920J                PENNACCHIETTI                 GUERRINO            116061929PNNGRN29H16D542F109033110111                                                                              110120141127312 9913 100000000001182541300
110111002604002604FMRNGRG53L06D542F                CICCOLA                       ITALO               124041936CCCTLI36D24D542V109006110111                                                                              110120141633393 0112 100000000001182719100
110111002604002604FMRNGRG53L06D542F                CICCOLA                       ITALO               124041936CCCTLI36D24D542V109006110111                                                                              110120141633393 0212 100000000001182719100
110111002604002604FMRNGRG53L06D542F                CICCOLA                       ITALO               124041936CCCTLI36D24D542V109006110111                                                                              110120141633393 9912 100000000001182719100
110111002604002604FRCLPLA59A03H501F                BRACALENTE                    PASQUALINA          210011946BRCPQL46A50C770Z043013110108                                                                              110110188635781 0112 100000000001182750400
110111002604002604FRCLPLA59A03H501F                BRACALENTE                    PASQUALINA          210011946BRCPQL46A50C770Z043013110108                                                                              110110188635781 9912 100000000001182750400
110111002604002604FMZZGNN46D25I324M                ROSSINI                       EGIDIA              224091931RSSGDE31P64F268M109034110111                                                                              110120074407678 0112 100000000001182820600
110111002604002604FMZZGNN46D25I324M                ROSSINI                       EGIDIA              224091931RSSGDE31P64F268M109034110111                                                                              110120074407678 0212 100000000001182820600
110111002604002604FMZZGNN46D25I324M                ROSSINI                       EGIDIA              224091931RSSGDE31P64F268M109034110111                                                                              110120074407678 9912 100000000001182820600
110111002604002604FZMPFRN50R53I324T                MARILUNGO                     RENZO               126031947MRLRNZ47C26D542I109034110111                                                                              110110127406891 0112 100000000001183207300
110111002604002604FZMPFRN50R53I324T                MARILUNGO                     RENZO               126031947MRLRNZ47C26D542I109034110111                                                                              110110127406891 0212 100000000001183207300
110111002604002604FZMPFRN50R53I324T                MARILUNGO                     RENZO               126031947MRLRNZ47C26D542I109034110111                                                                              110110127406891 9912 100000000001183207300
110111002604002604FSRFNRC58P07I324C                PIETA'                        UMBERTO             129101937PTIMRT37R29I324V109034110111                                                                              110110131560661 0113 100000000001183344500
110111002604002604FSRFNRC58P07I324C                PIETA'                        UMBERTO             129101937PTIMRT37R29I324V109034110111                                                                              110110131560661 9913 100000000001183344500
110111002604002604FMRTNGL54E25G921C                RACCOSTA                      MARIALISA           208041966RCCMLS66D48I324W109034110111                                                                              110110128281320 0112 100000000001184675100
110111002604002604FMRTNGL54E25G921C                RACCOSTA                      MARIALISA           208041966RCCMLS66D48I324W109034110111                                                                              110110128281320 0212 100000000001184675100
110111002604002604FMRTNGL54E25G921C                RACCOSTA                      MARIALISA           208041966RCCMLS66D48I324W109034110111                                                                              110110128281320 9912 100000000001184675100
110111002604002604FMZZMRN52C13I324X                COLUCCI                       PAOLO               112111961CLCPLA61S12E716H109034110111                                                                              110110128319737 0112 100000000001184793800
110111002604002604FMZZMRN52C13I324X                COLUCCI                       PAOLO               112111961CLCPLA61S12E716H109034110111                                                                              110110128319737 9912 100000000001184793800
110111002604002604FNZETTL45P20I324O                SPEZIALE                      DIEGO               121061947SPZDGI47H21I644R109034110111                                                                              110120005810231 0112 100000000001184978000
110111002604002604FNZETTL45P20I324O                SPEZIALE                      DIEGO               121061947SPZDGI47H21I644R109034110111                                                                              110120005810231 9912 100000000001184978000
110111002604002604FNTNSVR50E10A662Y                BELLETTI                      ELEONORA            207061982BLLLNR82H47D542R109034110111                                                                              110110127403763 0112 100000000001185222300
110111002604002604FNTNSVR50E10A662Y                BELLETTI                      ELEONORA            207061982BLLLNR82H47D542R109034110111                                                                              110110127403763 9912 100000000001185222300
110111002604002604FMCZGPP51L16F493B                PEZZOLA                       SANTINA             219041938PZZSTN38D59F697I109006110111                                                                              110120072701717 0113 100000000001186564300
110111002604002604FMCZGPP51L16F493B                PEZZOLA                       SANTINA             219041938PZZSTN38D59F697I109006110111                                                                              110120072701717 9913 100000000001186564300
110111002604002604PVSNRRT56L14A345T                MARINELLI                     LUCE                231102002MRNLCU02R71H211S109034110111                                                                              110110130185775 0112 100000000001187651200
110111002604002604PVSNRRT56L14A345T                MARINELLI                     LUCE                231102002MRNLCU02R71H211S109034110111                                                                              110110130185775 9912 100000000001187651200
110111111311111311FCPNMRM52M69G873P                RENZETTI                      FIORENTINO          106031940RNZFNT40C06G141X109006110111                                                                              080110197748224 0113 100000000001187760300
110111111311111311FCPNMRM52M69G873P                RENZETTI                      FIORENTINO          106031940RNZFNT40C06G141X109006110111                                                                              080110197748224 9913 100000000001187760300
110111002604002604FCCCCRL52S51I156P                LATTANZI                      GABRIELA            202011947LTTGRL47A42F517U109037110111                                                                              110110190512573 0112 100000000001188164300
110111002604002604FCCCCRL52S51I156P                LATTANZI                      GABRIELA            202011947LTTGRL47A42F517U109037110111                                                                              110110190512573 9912 100000000001188164300
110111002604002604FSGTGPP54R15H769Q                NARCISI                       ESTER               205061973NRCSTR73H45H769O044023110112                                                                              110120047927046 0113 100000000001188415700
110111002604002604FSGTGPP54R15H769Q                NARCISI                       ESTER               205061973NRCSTR73H45H769O044023110112                                                                              110120047927046 0213 100000000001188415700
110111002604002604FSGTGPP54R15H769Q                NARCISI                       ESTER               205061973NRCSTR73H45H769O044023110112                                                                              110120047927046 9913 100000000001188415700
110111002604002604FMRTNGL54E25G921C                RIPA                          CRISTIAN            114021976RPICST76B14I324E109034110111                                                                              110110131564981 0112 100000000001188650100
110111002604002604FMRTNGL54E25G921C                RIPA                          CRISTIAN            114021976RPICST76B14I324E109034110111                                                                              110110131564981 9912 100000000001188650100
110111002604002604FTRBVCN52L24D691X                TESTARDI                      ODDINO              123101941TSTDDN41R23L103K109034110111                                                                              110120074420065 0113 100000000001189072000
110111002604002604FTRBVCN52L24D691X                TESTARDI                      ODDINO              123101941TSTDDN41R23L103K109034110111                                                                              110120074420065 9913 100000000001189072000
110111002604002604FCSCMCR54B62F496Y                GISMONDI                      MICHELA             226021979GSMMHL79B66I324I109037110111                                                  c02                         110120074472827 0113 100000000001189364000
110111002604002604FCSCMCR54B62F496Y                GISMONDI                      MICHELA             226021979GSMMHL79B66I324I109037110111                                                  c02                         110120074472827 9913 100000000001189364000
110111002604002604FZMPGNN49L11I774L                LAURI                         CLAUDIO             118081945LRACLD45M18D542E109006110111                                                                              110120141497010 0113 100000000001189385300
110111002604002604FZMPGNN49L11I774L                LAURI                         CLAUDIO             118081945LRACLD45M18D542E109006110111                                                                              110120141497010 9913 100000000001189385300
110111002604002604HLNGLGU58P05D547W                QUINZI                        EMANUELE            128091995QNZMNL95P28D542E109006110111                                                                              110100118077805 0111 100000000001189424800
110111002604002604HLNGLGU58P05D547W                QUINZI                        EMANUELE            128091995QNZMNL95P28D542E109006110111                                                                              110100118077805 0211 100000000001189424800
110111002604002604HLNGLGU58P05D547W                QUINZI                        EMANUELE            128091995QNZMNL95P28D542E109006110111                                                                              110100118077805 9911 100000000001189424800
110111002604002604FBNDCCL49P54H182P                GISMONDI                      AMELIA              210101935GSMMLA35R50L279H109040110111                                                                              110120137647304 0112 100000000001189612100
110111002604002604FBNDCCL49P54H182P                GISMONDI                      AMELIA              210101935GSMMLA35R50L279H109040110111                                                                              110120137647304 0212 100000000001189612100
110111002604002604FBNDCCL49P54H182P                GISMONDI                      AMELIA              210101935GSMMLA35R50L279H109040110111                                                                              110120137647304 9912 100000000001189612100
110111002604002604FMNTZEI46M24I324B                BRANNETTI                     GIUSEPPE            107091971BRNGPP71P07D542U109034110111                                                                              110110130155952 0113 100000000001189936500
110111002604002604FMNTZEI46M24I324B                BRANNETTI                     GIUSEPPE            107091971BRNGPP71P07D542U109034110111                                                                              110110130155952 9913 100000000001189936500
110111002604002604FGRNLGU66E22G516O                CARAPELLI                     ALDO                105111931CRPLDA31S05F656M109024110111                                                                              110120005895180 0113 100000000001190108400
110111002604002604FGRNLGU66E22G516O                CARAPELLI                     ALDO                105111931CRPLDA31S05F656M109024110111                                                                              110120005895180 9913 100000000001190108400
110111002604002604FBRCLGU53D11G920S                CICCOLA                       GIUSEPPE            126071947CCCGPP47L26F614Z109006110111                                                                              110120072104106 0113 100000000001190128600
110111002604002604FBRCLGU53D11G920S                CICCOLA                       GIUSEPPE            126071947CCCGPP47L26F614Z109006110111                                                                              110120072104106 9913 100000000001190128600
110111002604002604FMLCGPP74B27L113N                SIMONI                        ITALIA              222081939SMNTLI39M62I324Q109034110111                                                                              110110127947598 0112 100000000001190152600
110111002604002604FMLCGPP74B27L113N                SIMONI                        ITALIA              222081939SMNTLI39M62I324Q109034110111                                                                              110110127947598 0212 100000000001190152600
110111002604002604FMLCGPP74B27L113N                SIMONI                        ITALIA              222081939SMNTLI39M62I324Q109034110111                                                                              110110127947598 0312 100000000001190152600
110111002604002604FMLCGPP74B27L113N                SIMONI                        ITALIA              222081939SMNTLI39M62I324Q109034110111                                                                              110110127947598 9912 100000000001190152600
110111002604002604FBSSSFN51T26H501J                SIMONI                        IRAIDE              214041960SMNRDI60D54G921L109034110111                                                                              110110128334295 0112 100000000001190299100
110111002604002604FBSSSFN51T26H501J                SIMONI                        IRAIDE              214041960SMNRDI60D54G921L109034110111                                                                              110110128334295 9912 100000000001190299100
110111002604002604FDMNVCN46P08L113E                ALIBERTI                      TIZIANO             125031955LBRTZN55C25H182W109035110111                                                                              110120005435695 0113 100000000001190533300
110111002604002604FDMNVCN46P08L113E                ALIBERTI                      TIZIANO             125031955LBRTZN55C25H182W109035110111                                                                              110120005435695 9913 100000000001190533300
110111002604002604FMNCDNL63C57C770M                ALIBERTI                      ERMENEGILDO         120091938LBRRNG38P20F622A109037110111                                                                              110110132070678 0113 100000000001191057000
110111002604002604FMNCDNL63C57C770M                ALIBERTI                      ERMENEGILDO         120091938LBRRNG38P20F622A109037110111                                                                              110110132070678 9913 100000000001191057000
110111002604002604PRCCNLR55D46G403L                GUBBIOTTI                     NICOLA              128091999GBBNCL99P28A271H109034110111                                                                              110110127849768 0111 100000000001191060700
110111002604002604PRCCNLR55D46G403L                GUBBIOTTI                     NICOLA              128091999GBBNCL99P28A271H109034110111                                                                              110110127849768 9911 100000000001191060700
110111002604002604FBNDCCL49P54H182P                RASCHIONI                     MAURO               117011962RSCMRA62A17L279B109040110111                                                                              110110232083088 0113 100000000001191977300
110111002604002604FBNDCCL49P54H182P                RASCHIONI                     MAURO               117011962RSCMRA62A17L279B109040110111                                                                              110110232083088 9913 100000000001191977300
110111002604002604FPLCLVR45E51D542G                STREPPA                       ORIANA              226071959STRRNO59L66D542G109006110111                                                                              110120141848875 0112 100000000001192537500
110111002604002604FPLCLVR45E51D542G                STREPPA                       ORIANA              226071959STRRNO59L66D542G109006110111                                                                              110120141848875 0212 100000000001192537500
110111002604002604FPLCLVR45E51D542G                STREPPA                       ORIANA              226071959STRRNO59L66D542G109006110111                                                                              110120141848875 9912 100000000001192537500
110111002604002604FMRCFRZ53P13G921E                POGGI                         AMATO               125021946PGGMTA46B25F614G109024110111                                                                              110110189821068 0112 100000000001193022100
110111002604002604FMRCFRZ53P13G921E                POGGI                         AMATO               125021946PGGMTA46B25F614G109024110111                                                                              110110189821068 9912 100000000001193022100
110111002604002604PPLSDNI58R63H769U                STOIAN                        IZABEL MARIA        219042006STNZLM06D59Z129Y109030110111                                                                      31122011110120109122197 0111 100000000001193292400
110111002604002604PPLSDNI58R63H769U                STOIAN                        IZABEL MARIA        219042006STNZLM06D59Z129Y109030110111                                                                      31122011110120109122197 0211 100000000001193292400
110111002604002604PPLSDNI58R63H769U                STOIAN                        IZABEL MARIA        219042006STNZLM06D59Z129Y109030110111                                                                      31122011110120109122197 9911 100000000001193292400
110111002604002604FCTSSDR49B16B534I                ELSINI                        IDA                 230061927LSNDIA27H70L728U109006110111                                                                              110120140680405 0113 100000000001193438400
110111002604002604FCTSSDR49B16B534I                ELSINI                        IDA                 230061927LSNDIA27H70L728U109006110111                                                                              110120140680405 0213 100000000001193438400
110111002604002604FCTSSDR49B16B534I                ELSINI                        IDA                 230061927LSNDIA27H70L728U109006110111                                                                              110120140680405 9913 100000000001193438400
110111002604002604FCSCMCR54B62F496Y                FANTUZI                       GRAZIELLA           222121937FNTGZL37T62I324P109037110111                                                                              110120074445401 0113 100000000001193605200
110111002604002604FCSCMCR54B62F496Y                FANTUZI                       GRAZIELLA           222121937FNTGZL37T62I324P109037110111                                                                              110120074445401 9913 100000000001193605200
110111002604002604FBCLRRT56M18G920H                ORLANDO                       ROBERTO             126101954RLNRRT54R26E863F109006110111                                                                              110120140678572 0113 100000000001193609400
110111002604002604FBCLRRT56M18G920H                ORLANDO                       ROBERTO             126101954RLNRRT54R26E863F109006110111                                                                              110120140678572 0213 100000000001193609400
110111002604002604FBCLRRT56M18G920H                ORLANDO                       ROBERTO             126101954RLNRRT54R26E863F109006110111                                                                              110120140678572 9913 100000000001193609400
110111002604002604FCGNDNC58D24G920V                RICCIONI                      DAVID               104121981RCCDVD81T04D542V109033110111                                                                              110120139503251 0113 100000000001193856300
110111002604002604FCGNDNC58D24G920V                RICCIONI                      DAVID               104121981RCCDVD81T04D542V109033110111                                                                              110120139503251 9913 100000000001193856300
110111002604002604FRNRPLA53L06D628S                TAMBURRINI                    PALMA               204061946TMBPLM46H44D042L109018110111                                                                              110120137723984 0112 100000000001194030600
